:100000000C941F030C9457030C9457030C94570340
:100010000C9457030C9457030C9457030C945703F8
:100020000C9457030C9457030C943A310C941232ED
:100030000C94EF300C9457030C9457030C94570313
:100040000C9457030C9457030C9457030C945703C8
:100050000C9457030C9416310C9457030C945703CB
:100060000C9457030C9457030C9457030C945703A8
:100070000C9457030C9457030C9457030C94570398
:100080000C9457030C9457030C9457030C94570388
:100090000C9457030C9457030C9457030C94570378
:1000A0000C9457030C9457030C9457030501090251
:1000B000A10185020901A1000509190129081500FE
:1000C0002501950875018102050109300931158165
:1000D000257F95027508810609381581257F9501D0
:1000E00075088106050C0A38021581257F95017572
:1000F000088106C0C005010980A101850319012AF4
:10010000B700150126B700950175108100C0050CD8
:100110000901A101850419012AA002150126A002E6
:10012000950175108100C005010906A1018506052C
:100130000719E029E71500250195087501810205D9
:1001400007190029EF1500250195F07501810205B9
:10015000081901290595057501910295017503910D
:1001600001C00660FF0961A1010962150026FF00B8
:100170009520750881020963150026FF00952075FA
:10018000089102C005010906A101050719E029E748
:1001900015002501950875018102950175088101F9
:1001A0000507190029FF150026FF0095067508812F
:1001B000000508190129051500250195057501910E
:1001C00002950175039101C00000000000000000CD
:1001D000000000000000000000000000000000001F
:1001E0000000000000000000000000007E0F00D4AE
:1001F000FFFFFFC7000000780000000000000000C3
:100200002A2B280000000000000000000000000071
:1002100000000029000000002C1E3420212224347C
:100220002627252E362D3738271E1F20212223244E
:1002300025263333362E37381F0405060708090AEA
:100240000B0C0D0E0F101112131415161718191A86
:100250001B1C1D2F3130232D350405060708090A04
:100260000B0C0D0E0F101112131415161718191A66
:100270001B1C1D2F3130354C09025B00030100A00F
:10028000FA09040000010301010009211101000124
:10029000224400070581030800010904010002034C
:1002A000000000092111010001222200070582033C
:1002B00020000107050303200001090402000103D7
:1002C00000000009211101000122B6000705840386
:1002D0002000011201000200000008EDFE040500EC
:1002E00001010203011C037600690061006C003A01
:1002F00000660036003400630032006200330063A1
:100300000000001E0370006100640061007600615F
:10031000006E005F00610074006D006500670061A1
:1003200000000010036B0069006C00690070006140
:10033000006E00000004030904290014001A0008DC
:1003400000150017001C0018002B00040016000701
:100350000009000A000B000D00E1001D001B000653
:10036000001900050011001000E000E300E2002C7D
:10037000002C002C002C002C002600250024004C12
:10038000002A00130012000C002300220021004963
:1003900000280033000F000E0020001F001E005236
:1003A00000E500380037003600E70027004F005115
:1003B000005000E400E6000000010001001D055FA0
:1003C00028752800000200020019055F2875280022
:1003D00000030001001E055F2875280000040002CC
:1003E0000003055F287528EA07050001001F055F67
:1003F00028752800000600020005055F2875280002
:1004000000070002001B055F287528000008000196
:100410000020055F28752800000900020007055F1D
:10042000287528F3070A00020009055F287528F3DC
:10043000070B0002000B055F287528F3070C00026C
:10044000000D055F287528F3070D0002000F055FFA
:10045000287528F3070E00020011055F287528F3A0
:10046000070F00020013055F287528F3071000022C
:100470000015055F287528F3071100020017055FB6
:10048000287528F3071200020021055F287528004F
:10049000001300020023055F2875280000140001E6
:1004A0000025055F287528000015000000000018D1
:1004B000082D110000FD377A585A000004E6D6B422
:1004C000460200210116000000742FE5A3E0036E30
:1004D00001465D003D8889C65436C3174FE4F815C0
:1004E000880193E95DFE0C65A00093ECED10885047
:1004F000A070C199C507CA8647B86D0C4321F18128
:1005000033870260A24701881B2F2144CD387A77B8
:10051000FAC8632B5A3C2D8E46C67A234302A1DCCF
:100520004C2BB096D513BE8897DBC67928E80E1EF3
:100530002D45BA6E111F9435DA44D26982FC71F9E7
:10054000536E3D8E78E511E361785F35B12DF6F796
:100550004318C9B7381006483569DECC8D051476C6
:10056000DD4C3AD2D361F419FA35E22C87FB4648C8
:1005700004A1B457B3F789EDD1556CA86788FCA7DF
:10058000A8396ED8610356AE166EED9FEFE74A2983
:100590005C12D05A8306EA14539A15284FE6F405E4
:1005A000B1488C45ED13A15563D4A16D9D95D354ED
:1005B000126A52842CC2EF61A6DFC1B07E0713FB22
:1005C000E16593BD48E256C71860155714E30681EC
:1005D0003CB2C8AAC9CB0B9AC96A281DB16AFFDF11
:1005E0007D81778337A4C65969467443F606C20CE9
:1005F000B7A160D4E223177DF4730851013F0F6E59
:10060000F5363527E0A4671F515ADC9FB4568E7F1C
:1006100024259467DB05BFF3A10000000066F664A3
:10062000658424F67E0001E202EF060000E81088EF
:1006300068B1C467FB020000000004595A0011248D
:100640001FBECFEFDAE0DEBFCDBF04B603FE18C099
:1006500080912B0590912C05A0912D05B0912E0530
:100660008730904BA740B04B59F410922B05109255
:100670002C0510922D0510922E05E0E0F8E3099567
:1006800011E0A0E0B1E0E6EAF7E602C005900D92C5
:10069000A437B107D9F725E0A4E7B1E001C01D9266
:1006A000AB32B207E1F70E9439290C9457330C940E
:1006B00000009C019A9581159F4118F5F901EE27DC
:1006C000F270832F8170B90166277470A9014427E5
:1006D000587034FF0CC08295807FEF2B09F0806248
:1006E000672B09F08064452B69F080680895EF2B33
:1006F00009F08260672B09F08460452B19F088604F
:10070000089580E00895CF93DF93EB010E94590391
:10071000FE010995DF91CF910895282F92959F7042
:10072000963099F060F4925F9F70923030F4203FE1
:1007300089F038F481E0283E38F080E008959A5F2F
:10074000F3CF81E0243FC9F7089581E0283EE0F32C
:10075000213FF9CF81E0089580934E04089580935E
:100760000205089521E030E001C0220F8A95EAF7E2
:1007700080910205822B0E94AF03089521E030E0B2
:10078000A90102C0440F551F8A95E2F7CA0180955E
:100790009091020589230E94AF030895282F292BE9
:1007A000283078F548E0949F90011124280F311DDE
:1007B000877041E001C0440F8A95EAF783E03695DF
:1007C00027958A95E1F7F901EE0FFF1FE20FF31F5E
:1007D000E258FC4F80E090E070E05191DF0111970A
:1007E0009B01082E02C0369527950A94E2F72170E6
:1007F00021952527242325272C93019683309105C5
:1008000061F70895282F292B283068F548E0949F38
:1008100090011124280F311D982F977083E0369591
:1008200027958A95E1F7F901EE0FFF1FE20FF31FFD
:10083000E258FC4F40E050E080E0219130E0092E8A
:1008400002C0369527950A94E2F721703327042ECB
:1008500001C0220F0A94EAF7822B4F5F5F4F4330AB
:10086000510559F7089580E008959091020521E01F
:1008700030E0F90101C0EE0F8A95EAF7D90102C014
:10088000AA0FBB1F6A95E2F7EA2B01C0220F4A9517
:10089000EAF7892F8E23E81305C0892F822B0E9447
:1008A000AF0308952095822F8923F9CF80912C03DF
:1008B00090912B03981301C008958F5F8770FACF32
:1008C000909112019115C1F09091270597FF14C0E6
:1008D000E82FE695E695E695803FF8F4F0E0EA58D3
:1008E000FE4F877021E030E001C0220F8A95EAF7C1
:1008F0008281822B82830895A8E7B1E0EFEF90E038
:100900002D91821751F0EF3F19F4211101C0E92F09
:100910009F5F9630A9F7EF3F09F408950E2E000C63
:10092000FF0BEA58FE4FE6CF909112019115E1F0CE
:100930009091270597FF18C0E82FE695E695E69574
:10094000803FF0F4F0E0EA58FE4F877021E030E09D
:10095000A90102C0440F551F8A95E2F7CA0180958C
:100960009281892382830895E8E7F1E091918913C8
:1009700003C0DF0111971C9251E0EE37F507B1F784
:100980000895909150048095892380935004282FD6
:100990002770211111C0891779F09091280592FFD5
:1009A0000BC08695869586950E94BE0310925004D2
:1009B0001092520410925104089590914C04982B77
:1009C00090934C040895982F909580914C0489231E
:1009D00080934C04089580914B04811531F010925E
:1009E0004B0410924A04109249040895803E9105E8
:1009F000D9F1C8F48133910509F482C048F48932F1
:100A0000910509F472C08A32910509F480C00895F5
:100A100089339105E9F082389105D1F0853391054C
:100A200009F45EC00895843E9105D9F148F4823EF0
:100A3000910539F1833E910549F181EE90E00895E9
:100A4000863E9105C9F1873E910509F43EC008959F
:100A5000209127052370211164C02091280523FFD0
:100A600014C089E290E008952091270520FD45C03B
:100A70003091280530FF09C024FD24C083EE90E0AA
:100A800008952091270522FDF7CF0895209127058D
:100A900022FD44C03091280530FD43C024FFF5CF2E
:100AA00011C02091280521FFF0CF8091270584FDFA
:100AB00009C087EE90E008952091270523FFE5CF38
:100AC00024FFF7CF80E090E008952091270523FDD3
:100AD0002BC03091280531FFE1CF84EE90E00895DE
:100AE0002091270525FFD1CFBCCF2091270525FDDB
:100AF0001EC02091280523FFC8CF89E390E0089508
:100B00002091270526FFC1CF8AE290E00895209129
:100B1000270526FFBACF81E390E0089582EE90E0AA
:100B2000089580EE90E0089586EE90E0089585E3C4
:100B300090E008959091270592FF10C041E0282F82
:100B40002471243009F040E031E0282F287128304A
:100B500009F030E0431711F02CE0822793FF10C01A
:100B600041E0282F2471243109F040E031E0282FA2
:100B70002871283109F030E0431711F02CE082276A
:100B80003091280530FF10C051E0282F217121300D
:100B900009F050E041E0282F2871283009F040E0AA
:100BA000541711F029E0822731FF10C041E0282FAF
:100BB0002171213109F040E031E0282F28712831DE
:100BC00009F030E0431711F029E0822794FD877E79
:100BD00008951F93CF93DF930E94F604EC018115D3
:100BE00022E5920708F05DC0811540E5940708F002
:100BF000DBC0803E910528F58D3C910508F0ACC026
:100C0000883A910578F4853A910508F0A2C08130C0
:100C1000910509F441C00497813A9105E8F1C0E0DB
:100C2000D0E03AC0885A91094B97C8F7C85AD0E02B
:100C3000CC0FDD1FC25CDE4F0990D881C02DD4647B
:100C40002BC0811550E49507F8F4C11580E2D80750
:100C500008F0C3C0C83ED105F8F0CE019A958115C1
:100C60009F41E8F68D2F0E949A05182FCE019927F3
:100C70000E94F604212F30E0322F2227E901CC27F1
:100C8000DF71C82BD92B08C099270E94F604CC2706
:100C9000DF70C82BD92BD06ACE01DF91CF911F9185
:100CA0000895803842E59407C8F5803652E59507E7
:100CB00008F05BC0C03482E5D807D0F4C03292E5BA
:100CC000D90708F04BC08C2F8695869520E2829F2D
:100CD000C0011124C37021E030E0A90102C0440F1B
:100CE000551FCA95E2F7EA01C82BD92BDD68D4CF8E
:100CF0008C2F86958695877050E2859FC0011124C0
:100D0000C37021E030E0A90102C0440F551FCA950D
:100D1000E2F7EA01C82BD92BDC68BECF803C52E554
:100D2000950758F48F71C03AD245A0F590E0982FFE
:100D30008827EC01C46FD06AAFCF805C9245809762
:100D400008F06DCFDC2FCC27CC27DF71C06FD06AC5
:100D5000A3CFA497D064A0CFD0659ECFCF71D0E0B1
:100D6000DC2FCC27C16FD06A97CF86958695877088
:100D700020E2829FC0011124C37021E030E0A9016C
:100D800002C0440F551FCA95E2F7EA01C82BD92BC0
:100D9000DA6882CF0E949A05C82FD0E0DC2FCC27DA
:100DA000CC27DF71D06278CF8F710E949A0565E001
:100DB000D695C7956A95E1F7CF70D0E0DC2FCC27A8
:100DC000282F30E084FF05C054E0220F331F5A95CE
:100DD000E1F7C22BD32BD0695FCF8D2F8F710E948B
:100DE0009A05182FCE0199270E94F604212F30E092
:100DF000322F222722273F71282B392BE901D2CF0E
:100E000080E00895F894E82FE295EF70F0E041A1BA
:100E10008F7021E030E0B90102C0660F771F8A951C
:100E2000E2F7CB01962F9095942391A392A1892B61
:100E300082A378940895282F35EB2303C001112451
:100E400097FF04C080589109892F089580589F4FBB
:100E5000FBCF8091980360910B0570910C0580FF8A
:100E600016C020910301269FC001279F900D1124D9
:100E7000BC0176956795769567956038710508F0A1
:100E800044C06115710509F442C0862F089581FFA1
:100E90000BC020910301269FC001279F900D1124B4
:100EA000BC0176956795E9CF82FF09C08091030167
:100EB0009B01829FB001839F700D1124DECF809132
:100EC00097038115D1F2909102012091030130E046
:100ED000891748F0CB01829FB001839F700D929FCC
:100EE000700D1124CACF829FA001839F500D112441
:100EF000469F9001479F300D569F300D1124692F5A
:100F000070E0C9010E945B32B8CF8FE7089581E09D
:100F100008958091980380FF0CC06091010170E0FA
:100F200075956795759567956115710561F1862FC2
:100F3000089581FF06C06091010170E07595679585
:100F4000F3CF6091010170E082FD15C020919603FE
:100F50002115B1F0909100016091010170E0291715
:100F600050F4269FA001279F500D1124692F70E097
:100F7000CA010E946F3260387105B0F28FE70895A0
:100F800061E070E0D4CF81E0089581152CE79207ED
:100F900041F42091000330910103232B11F480E0F0
:100FA00090E00895EAEBF3E080E090E060E777E21C
:100FB00046E957E22BE038E2778366835187408722
:100FC00033872287978786870196709688309105A8
:100FD00099F70895809103059091040590930D0170
:100FE00080930C010895E3E0F5E0848195812AE087
:100FF00030E0B9010E945B326093100186818093DA
:101000001101828580930301848580930201868586
:101010009785B9010E945B3260930E0180898093AD
:101020000F018289809301018489809300010895D2
:10103000A0E0B0E0EEE1F8E00C949632FB018FEF17
:101040009FEF4430510508F465C04091270541FBEE
:10105000882780F990E0880F991F42FBAA24A0F806
:10106000B12CAA0CBB1CAA0CBB1C8A299B2940FBD7
:10107000882480F8912C8829992943FBCC24C0F836
:10108000D12C53E0CC0CDD1C5A95E1F78C299D291D
:1010900044FBEE24E0F8F12C64E0EE0CFF1C6A95B2
:1010A000E1F78E299F2945FB002700F910E075E044
:1010B000000F111F7A95E1F7802B912B46FB222719
:1010C00020F9C22F20E0D22FA6E0CC0FDD1FAA9579
:1010D000E1F78C2B9D2B47FB442740F920E8429FEA
:1010E000A0011124842B952B20912805322F3170DB
:1010F000932B26952170B22FBB0FA0E08A2B9B2B40
:10110000092E000CAA0BBB0B80839183A283B383AF
:1011100080E090E0CDB7DEB7ECE00C94B232AC01E9
:1011200023E0969587952A95E1F78E719927FC0122
:10113000E353FE4F0190F081E02D4F70552721E0E1
:1011400030E002C0220F331F4A95E2F7611541F0EB
:10115000E22BF32B83539E4FDC01ED93FC93089518
:1011600020953095E223F323F5CF1092940410924A
:101170009304E3E5F4E08581811102C014821682B4
:10118000379684E0EB38F807B1F70895AC01309159
:10119000960460919504232F621301C00895822F55
:1011A00090E0FC01EE0FFF1FE557FB4F0190F0812F
:1011B000E02DE417F50791F467E0649FF001659F67
:1011C000F00D1124ED5AFB4F41E044832313E6CF89
:1011D0000196837099278093960408950196282F8D
:1011E0002370DACFFC018481862381110AC08281B9
:1011F0008115B9F06823908593FF05C081E06111E6
:101200000FC080E00895282F22952F708F70282B13
:10121000962F92959F706F70962B81E02913F1CFD6
:10122000089581E00895FA01309709F0099508952D
:10123000E0910903F0910A03309729F00190F081C1
:10124000E02D0995089580E00895A3E0B0E0EBE279
:10125000F9E00C94A0329C018091CA019091CB01DD
:1012600082179307A1F03093CB012093CA01E0913C
:101270000903F0910A03309751F083E089833B839F
:101280002A830680F781E02DCE01019609952396E9
:10129000E2E00C94BC32A3E0B0E0E1E5F9E00C94AC
:1012A000A0329C018091C8019091C90182179307D7
:1012B000A1F03093C9012093C801E0910903F09196
:1012C0000A03309751F084E089833B832A830680A8
:1012D000F781E02DCE01019609952396E2E00C946A
:1012E000BC322FB7F8948091E3029091E402A09170
:1012F000E502B091E6022FBF089580910505909117
:101300000605892B91F00E947109209149043091C2
:101310004A04AC01421B530B9A0181E04091050540
:10132000509106052417350708F480E08170089570
:10133000962F2091280522FF10C0682F660F660F98
:10134000660F692B609350040E94B2030E947109DA
:10135000909352048093510408950E94B20308951B
:1013600090914B04292F2823211561F08095892322
:1013700080934B04811539F00E94710980934904D0
:1013800090934A04089580E090E0F8CFCF93C82F5F
:101390008091280582FF0CC080914B048C1741F08E
:1013A0000E94710990934A0480934904C0934B04AE
:1013B000CF9108950E94710920919B0330919C0365
:1013C000232B211521F08093F1029093F2022091BA
:1013D0009D0330919E03232B211521F08093EF0272
:1013E0009093F002E0910903F0910A03309749F0DD
:1013F00082E0809399030480F581E02D89E993E0F0
:1014000009950895611509F44BC0E3E3E80FE33152
:1014100050F4F0E0E75AFC4C0C9483320E94290708
:10142000819580939C030E94DA0908950E94290700
:10143000F8CF0E942907819580939B03F4CF0E94E7
:101440002907FACF0E94890780939D03ECCF0E9461
:1014500089078195F9CF0E948907819580939E0322
:10146000E2CF0E948907FACF815D990B21E030E03D
:1014700001C0220F8A95EAF780919A03822B80930C
:101480009A03D1CF80919803816080939803CBCF4A
:10149000809198038260F9CF809198038460F5CFA2
:1014A00040919B038D3C59F480919C0387FF0DC0B4
:1014B00010929C03411559F41092970308C08E3C7A
:1014C00081F480919C0318169CF3411581F0809162
:1014D0009D0390919E03892B8111A5CF10929603B5
:1014E000A2CF8F3C41F447FFF0CF10929B03809135
:1014F0009C038115E0CF803D19F41416B4F3E5CFB9
:1015000090919D03893D29F41916FCF610929D03D4
:10151000DCCF8A3D19F497FFD8CFF8CF90919E0386
:101520008B3D29F497FFD1CF10929E03CECF8C3DF7
:1015300019F41916CCF3C9CF9FE2980F983090F4A4
:10154000815D990B21E030E0B90102C0660F771F81
:101550008A95E2F7CB01809590919A038923809335
:101560009A03B3CF8D3D31F4809198038E7F8093A1
:101570009803ABCF8E3D21F4809198038D7FF7CFF8
:101580008F3D09F0A2CF809198038B7FF0CF2FB7CA
:10159000F8946091E3027091E4028091E5029091E9
:1015A000E6022FBF08950F931F93CF93DF93D82F99
:1015B000C92F4091B0035091B1036091B203709173
:1015C000B3032FB7F8948091E3029091E402A091C5
:1015D000E502B091E6022FBF841B950BA60BB70B5B
:1015E000843F9140A105B10528F56091B003709149
:1015F000B1038091B2039091B30304EF11E020E0B6
:1016000030E06093EB027093EC028093ED029093D4
:10161000EE020093E7021093E8022093E902309370
:10162000EA02D093AE03C093AF03DF91CF911F9135
:101630000F9108950E94C70A02E310E020E030E015
:10164000E0CF9C014FB7F8948091E3029091E402BF
:10165000A091E502B091E6024FBF821B930B089563
:101660008091C7010895FC019B018091A501909193
:10167000A6018617970740F0672B29F48091E800B0
:101680008E778093E800C90140E0009741F4411152
:1016900006C08091E80082FF2FC080E0089520916D
:1016A00002032115A9F12530A9F12091E80023FDBD
:1016B0002DC02091E80022FDECCF2091E80020FF12
:1016C000E4CF3091F3002091F200009719F0283018
:1016D000310558F041E02830310509F040E0209113
:1016E000E8002E772093E800D0CF41914093F1009D
:1016F00001972F5F3F4FE9CF80910203811541F0A1
:10170000853041F08091E80083FFC3CF81E00895E8
:1017100082E0089583E0089580919F0187FF13C0C0
:101720008091E80082FF06C08091E8008B7780936B
:10173000E8000895809102038111F2CF089580910D
:1017400002038115D9F38091E80080FFF8CF8091E2
:10175000E8008E77ECCF2091E4003091E50095E62B
:10176000A9018091EC008170811531F08091E80031
:1017700080FF06C080E008952091E80022FD1AC095
:1017800080910203811589F0853089F08091EB000A
:1017900085FD0FC02091E4003091E500421753070A
:1017A00001F39A95E9F684E0089582E0089583E0D4
:1017B000089581E00895E8EDF0E080818E7F8083D8
:1017C0001092E2001092DA001092E100A0EEB0E078
:1017D0008C9181608C9380818F77808319BCA7ED79
:1017E000B0E08C918E7F8C9380818F7E808310926D
:1017F0009E010895982F9093E900242F762F50E0B2
:10180000981731F07091EC002091ED005091F000AC
:1018100021FD06C09F5F973071F78093E90008951E
:101820003091EB003E7F3093EB003091ED003D7F37
:101830003093ED003091EB0031603093EB0070930A
:10184000EC002093ED005093F0002091EE0027FD76
:10185000E1CF0895A0E0B0E0E0E3FCE00C949A3220
:10186000C8EDD0E088818F7E8883E7EDF0E080814D
:101870008160808384E082BF81E080939E018881C3
:101880008E7F888302EE10E0F80110821092DA0059
:1018900081EEC82ED12CF601108288818F77888343
:1018A00088818068888388818F7D888319BC1092A5
:1018B000020310929D011092D90210929C0190EEA9
:1018C000E92EF12CF70180818B7F808388818160F4
:1018D000888342E060E080E00E94FA0BF60180819C
:1018E0008E7F8083F8018081816080838081886021
:1018F0008083F70180818E7F8083888180618883E7
:10190000CDB7DEB7E8E00C94B6329C012115310565
:1019100009F408958FE99FE00197F1F700C00000F6
:1019200021503109F3CF81E08093E00080E2809381
:10193000D8001092C9008FE19EE40197F1F700C032
:10194000000087E090EBDC0180932B0590932C0541
:10195000A0932D05B0932E0588E19CE00FB6F89476
:10196000A895809360000FBE90936000FFCF0F9307
:101970001F93CF93DF938B01EA0190910203943080
:1019800059F58093E9008FEF9091E80095FD06C02E
:1019900095ED9A95F1F700008A95B1F78091E800EE
:1019A00085FF1AC00E94AB0B811111C08091E80025
:1019B00085FD06C08091E8008E778093E800F2CF25
:1019C000F80181918F018093F100219779F780913F
:1019D000E8008E778093E800DF91CF911F910F91FF
:1019E0000895CF93DF93D82FC92F809112018111D1
:1019F00013C048E050E06D2F792F81E00E94B70CB2
:101A000080E2ED2FFC2FA7EAB1E001900D928A95BC
:101A1000E1F7DF91CF9108958091270587FD06C0FA
:101A200048E081E050E06D2F7C2FE8CF40E284E079
:101A3000F9CFBC0146E050E084E00E94B70C089565
:101A4000BC0143E050E084E00E94B70C08959091FF
:101A5000280592FB222720F9281779F080FB92F9BC
:101A600090932805609127057091280584E090E007
:101A70000E94393382E00E94C1040895CF93C82F99
:101A800066E1811101C06FEF85E290E00E941B3397
:101A900060ECC11101C06FEF86E290E00E941B3341
:101AA00062E1C11101C06FEF87E290E00E941B3339
:101AB000CF9108951F93CF93DF93C62F122F632FDB
:101AC0008430E0F49C2F942B9830C0F420E1C29F26
:101AD000E001112450E0440F551FC40FD51F20E82A
:101AE000829FC0011124C80FD91FCE0189960E9480
:101AF0001B33612FCE018A960E941B33DF91CF9159
:101B00001F910895CF93DF93CDE3D3E060E0CE0142
:101B10000E941B332196C11584E0D807B9F7DF91E5
:101B2000CF91089585E290E00E94FD32863189F4DC
:101B300086E290E00E94FD32803C59F487E290E01A
:101B40000E94FD3291E0823109F090E0892F81708E
:101B5000089580E0FCCF0F931F93CF93DF9303E0B2
:101B600015E0C9E2D2E0CE010E94FD32F801619198
:101B70008F01681719F0CE010E941B332196CD34D6
:101B8000F2E0DF0781F7DF91CF911F910F91089568
:101B90000F931F93CF93DF9303E015E0C9E2D2E0E8
:101BA000CE010E94FD32F80181938F012196CD3440
:101BB000F2E0DF07A9F7C3ECD3E0FE018591949131
:101BC000009711F0FC0109952C96F4E0CF3BDF075C
:101BD000A1F7DF91CF911F910F9108950F931F935C
:101BE000CF93DF93843038F5962F942B983018F5E7
:101BF00020E1629FE001112450E0440F551FC40F03
:101C0000D51F30E8839FC0011124C80FD91FCE0112
:101C100089960E94FD32082F10E0102F0027CE0178
:101C20008A960E94FD329801282BC901DF91CF913D
:101C30001F910F91089580E090E0F8CF462F672F15
:101C40002091050330910603232B91F4703F39F462
:101C5000403F71F480910303909104030895942F01
:101C6000972B983028F4843018F40E94EE0D0895D4
:101C700080E090E00895A0E0B0E0E1E4FEE00C94A4
:101C80009B327C010091020580914E04082BC3E039
:101C9000D0E010E0C8010C2E02C0959587950A94FB
:101CA000E2F780FD09C02197A8F7D12C8D2DCDB783
:101CB000DEB7E7E00C94B732DC2EB7018C2F0E9420
:101CC0001E0E0E94E905019771F3F0CFCF93DF93C9
:101CD000D82FC92F0E943B0E6D2F7C2F0E941E0E05
:101CE0000E94E905DF91CF910895FC01848181155F
:101CF00071F087819085009729F00E94E9050E9484
:101D00008D030895808191810E94660EF8CF80E056
:101D100008951F93CF93DF93182FD92F611599F052
:101D2000411589F00E943B0EC82F682F812F9D2FEF
:101D30000E94CE03612F7D2F8C2F0E941E0EDF91FB
:101D4000CF911F9108950E940204C82FF3CFFC0188
:101D5000462F87819085009729F465818081918144
:101D60000E94890E0895CF9380914C0490914F0466
:101D7000892B8093760180914B04811551F18091DC
:101D8000050590910605892B29F00E947D09811196
:101D90000E94EB048091760190914B04892B8093F3
:101DA000760180911201811521F08091270587FD30
:101DB00049C086E0815090E028E731E0F901408198
:101DC0002F5F3F4F41119F5F8150C0F791110E94DB
:101DD000EB04C091AA03C09580917601C82380913D
:101DE000A903C82BC093760140E250E06BE073E09A
:101DF00086E791E00E94D032892B11F180E2E6E77C
:101E0000F1E0ABE0B3E001900D928A95E1F7E0914B
:101E10000903F0910A03309799F08091120181151E
:101E200049F08091270587FF05C0C093770186E0C0
:101E3000809376010280F381E02D86E791E0099599
:101E4000CF9108958EE1B6CF811521F00E94DD0477
:101E50000E94B30E0895811539F090914F04892B9B
:101E600080934F040E94B30E0895811521F00E94C3
:101E7000E3040E94B30E0895811541F0809590917E
:101E80004F04892380934F040E94B30E0895CF938B
:101E9000C82F8115B9F18CEF8C0F813AA8F580918C
:101EA0001201811501F18091270587FF1CC0EC2FDD
:101EB000E695E695E695F0E0EA58FE4F828190E0DF
:101EC0004C2F477021E030E002C0220F331F4A95AB
:101ED000E2F782239323892B81F08C2F0E949404B4
:101EE0000E94B30E0AC0E8E7F1E08EE791E021918D
:101EF000C21799F38E179F07D1F78C2F0E946004A9
:101F00000E94B30ECF91089580E28C0F883048F480
:101F1000C77081E001C0880FCA95EAF70E94DD040E
:101F2000EFCF8BE58C0F833038F42C2F2452330BFA
:101F3000C9010E942509E6CFE8E5EC0FEB3150F42A
:101F4000F0E0EE0FFF1FE25CFE4F808191810E9466
:101F50004B09D8CF83E38C0F8331A0F661E08C2F3F
:101F60000E94020ACFCFCF93DF93EC01805E9109EC
:101F7000089720F06BE27FE0209711F464E27FE0A5
:101F8000CE010E9483038C2F0E94470FDF91CF91D7
:101F90000895611529F020914F04226020934F0489
:101FA0009C0130522115304308F499270E94B30F49
:101FB0000895811581F19CEF980F913A28F40E94C1
:101FC00094040E94B30E089590E2980F983050F454
:101FD000877091E001C0990F8A95EAF7892F0E94D6
:101FE000E304EFCF9BE5980F933028F480E090E076
:101FF0000E942509089598E5980F9B3128F480E008
:1020000090E00E944B09089593E3980F933118F4E0
:1020100060E00E94020A0895CF93DF93EC010E94D2
:10202000D90FCE01805E9109089720F06CE37FE024
:10203000209711F465E37FE0CE010E948303DF91D6
:10204000CF9108950F931F93CF93C82F009123052D
:1020500010912405893321F000912105109122056A
:102060008C2F0E94470F0115110539F48C2F0E9407
:10207000D90FCF911F910F9108958FE99FE001979C
:10208000F1F700C0000001501109EDCFA0E0B0E071
:10209000ECE4F0E10C949932EC018881811509F4AB
:1020A00092C08130E1F599818A81913021F42296A4
:1020B0000E94221005C0923029F422960E94470FF8
:1020C0002196EBCF933021F422960E94D90FF8CFBE
:1020D000943011F02196F4CF229620E030E06AE0AF
:1020E000AE014F5F5F4F8053990B8A30910560F0CE
:1020F0002115310529F38FE99FE00197F1F700C021
:10210000000021503109F4CF629FF001639FF00D70
:1021100011249C012E0F3F1F8981EA01E1CFE82F96
:10212000F0E0E850FE4FB490282F2695269526958E
:1021300030E0F901E851FE4FE4908770F12C082E51
:1021400002C0F594E7940A94E2F791E0E922FF24B3
:10215000F901E852FE4FC490D12C082E02C0D5944C
:10216000C7940A94E2F791E0C922DD24F901E8530B
:10217000FE4F049110E002C0159507958A95E2F78D
:1021800001701127E114F10419F081EE0E94470F4C
:10219000C114D10419F086EE0E94470F8B2D0E94C6
:1021A0002210C114D10419F086EE0E94D90FE11457
:1021B000F10419F081EE0E94D90F0115110509F4FF
:1021C0007FCF8CE275CFCDB7DEB7E9E00C94B532A6
:1021D00010924C0480911201E8E7F1E0811529F199
:1021E0008091270587FF21C08EE1DF011D928A952E
:1021F000E9F780E090E00E94250980E090E00E94ED
:102200004B0910924F040E94B30E86E0E9E9F3E017
:10221000DF011D928A95E9F71092970310929603B9
:10222000109298030E94DA09089586E0DECF0E949A
:10223000E8102FEF84E39CE0215080409040E1F7CC
:1022400000C0000088E19CE00FB6F894A895809348
:1022500060000FBE90936000FFCFCF92DF92EF92AD
:10226000FF92FB018FEF9FEF4430510508F481C0CE
:10227000C080D180E280F3800E94E810D701C601BF
:10228000B695A795979587958170282F220FD7012E
:10229000C60181709927AA27BB27822BB701A60107
:1022A00032E076956795579547953A95D1F7417005
:1022B000440F440F842BB701A601E3E076956795A0
:1022C00057954795EA95D1F74170440F440F440F55
:1022D000842BB701A601F4E076956795579547954D
:1022E000FA95D1F741704295407F842BB701A60142
:1022F000A5E07695679557954795AA95D1F74170D2
:102300004295440F407E842BB701A601B6E0769536
:10231000679557954795BA95D1F741704295440F07
:10232000440F407C842BB701A60197E07695679512
:10233000579547959A95D1F7479544274795842B0C
:1023400080932705D1FA882780F9880F9D2D9170F9
:10235000892B909128059C7F892B8093280560917B
:1023600027057091280584E090E00E94393380E0D1
:1023700090E0FF90EF90DF90CF900895E3E0F5E0DC
:10238000128E138E8FEA90E09183808325E0248F54
:1023900088E893E1938382838AE090E09583848345
:1023A00044E150E05783468348E050E0518740873E
:1023B000938782876EE170E0758764879787868749
:1023C00080E590E0918B808B538B428B48E250E00C
:1023D000558B448B42E350E0578B468B48EC50E0E2
:1023E000518F408F158E178E168E91A380A322A336
:1023F0000E94AB0D0E94E81010922805109227054C
:1024000080E084608093280560E074E084E090E0E0
:102410000E9439330E94C80D0895AAE2B0E0E3E1BA
:10242000F2E10C949F328FE991E0FC01019620913A
:10243000F100208321E0873A9207B9F78091A0014B
:10244000893009F456C0C8F4823009F4B3C083302F
:1024500009F482C0813071F18091E80083FFE8C007
:1024600080919F019091A0019A3008F0E1C0E92F7E
:10247000F0E0E459FC4C0C9483328A3009F489C0B2
:102480008B3051F780919F01813231F78091A30108
:102490009091A401892B01F78091E800877F8093B8
:1024A000E8000E948C0B8091A101809312010E9490
:1024B000E810D2CF80919F01813A71F68091E800B7
:1024C000877F8093E8008091A3019091A401892BDC
:1024D00061F060E080E090E070E00E94330B80915A
:1024E000E8008B778093E800B7CF60E287EA91E05D
:1024F000F3CF80919F01813209F0AECF8091A3018B
:102500009091A4018D7F892B09F0A6CF8091E800DE
:10251000877F8093E8008091E80082FF18C0909147
:10252000F3008091F200029731F48091F100813044
:1025300011F0863021F48091F1008093C7018091E1
:10254000E8008B778093E8000E948C0B85CF809108
:1025500002038111E0CF80CF80919F01813A09F081
:102560007BCF8091A3019091A401892B09F074CFB6
:102570008091E800877F8093E8008091E80080FFE9
:10258000FCCF809112018093F1008091E8008E775A
:10259000D9CF80919F01813209F05ECF8091E80010
:1025A000877F8093E8000E948C0B8091A20180932A
:1025B0009B0152CF80919F01813A09F04DCF8091CC
:1025C000E800877F8093E8008091E80080FFFCCFDF
:1025D00080919B01D8CF803889F0823849F580916D
:1025E000A3018F70873020F58093E9008091EB0084
:1025F00085FB882780F91092E90007C09091D902E5
:102600009195927080919C01892B9091E800977F21
:102610009093E8008093F1001092F1008091E8001F
:102620008E7723C0811116C08091A101813011F1F4
:102630008091E80083FF0AC08091E800877F809343
:10264000E8008091EB0080628093EB00AA96E3E0C3
:102650000C94BB32823061F78091A101811589F021
:102660001092E9008091E800877F8093E8000E9443
:102670008C0BDECF81E0933009F080E08093D902AB
:10268000EFCF8091A3018F702FEF280F263080F6B7
:102690008093E9002091EB0020FFE2CF933031F4EA
:1026A0008091EB0080628093EB00DACF9091EB0099
:1026B00090619093EB0021E030E0A90102C0440F4B
:1026C000551F8A95E2F74093EA001092EA00809144
:1026D000EB008860E8CF8111ABCF1091A1011F778B
:1026E0008091E3008078812B8093E3008091E80063
:1026F000877F8093E8000E948C0B8091E80080FF28
:10270000FCCF8091E30080688093E30083E01111A7
:1027100001C082E0809302038BCF8058823008F0A2
:1027200087CF4091A1015091A2014C3D83E0580711
:1027300099F583E08A838AE289834FB7F894DE01B2
:10274000139620E03EE051E2E32FF0E05093570073
:10275000849120FF03C082958F703F5F8F708A3015
:10276000C8F0895C90E08D939D932F5F243161F7D1
:102770004FBF8091E800877F8093E8006AE270E0B5
:10278000CE0101960E94330B8091E8008B778093F5
:10279000E8004ECF805DE6CF8091A3019091A40127
:1027A000252F33272330310509F44AC078F521302D
:1027B000310509F483C08BE590E0E8E7F2E02230D0
:1027C000310509F035CF2091E800277F2093E800FC
:1027D0002091A5013091A6018217930708F49C016E
:1027E00040E02115310509F06EC041116CC08091A7
:1027F000E80082FDC9CF80910203811529F285305E
:1028000019F28091E80083FFF2CFBECF213231056B
:1028100009F445C02232310509F00ACF8330910511
:1028200008F006CFFC01EE0FFF1FEE5DFE4F01909A
:10283000F081E02D815E9E4FDC018C9190E010C014
:10284000CA019927423019F18330910568F4892B28
:10285000B1F4E5E3F3E0E4918E2F90E0E5E3F3E0FB
:10286000009709F4E5CEAFCF039709F0E1CEE5EE8E
:10287000F2E0E4918E2F90E0E5EEF2E0F1CFE3E2BA
:10288000F3E0E4918E2F90E0E3E2F3E0E9CFE3E0C0
:10289000F3E0E4918E2F90E0E3E0F3E0E1CF8330CA
:1028A000910508F0C5CEFC01EE0FFF1FE85DFE4F5D
:1028B0000190F081E02D89E090E085CF82E190E009
:1028C000E3EDF2E080CF80910203811509F45CCF43
:1028D000853009F459CF8091E80083FD55CF809170
:1028E000E80082FD84CF8091E80080FF7ACF90914C
:1028F000F3008091F2002115310519F0883091051F
:1029000050F041E0089709F040E08091E8008E77B0
:102910008093E80066CF44914093F10031962150B6
:1029200031090196E8CF803809F082CE8091E80025
:10293000877F8093E80080919D018093F1006ECEA7
:10294000811176CE1091A101123008F071CE8091E4
:10295000E800877F8093E80010939D010E948C0B14
:102960001115D1F084E08093020342E061EC81E034
:102970000E94FA0B42E261EC84E00E94FA0B42E210
:1029800061EC82E00E94FA0B42E260EC83E00E947C
:10299000FA0B809102034CCE8091E30087FDE2CFD9
:1029A00081E0E1CF80911401877F809314019091A1
:1029B0004F049D7F90934F0484FF06C08F7E8093C9
:1029C000140182E00E94DD048091140185FF06C09D
:1029D0008F7D8093140180E20E94DD040E94B30E7B
:1029E0000895CF92DF92FF920F931F93CF93DF93BF
:1029F000EC018B01F42E8091140182FF66C0C0901F
:102A00003C04D0903D04CC16DD0619F0209709F067
:102A10005CC0809114018B7F80931401C1E081FD23
:102A200010C080913A0490913B049801281B390B07
:102A3000C1E080910C0190910D012817390708F42D
:102A4000C0E0C17080911401C0FB81F98093140132
:102A50006C2FC6010E948F0880914C0481FF08C032
:102A60008091140180618093140182E00E94E3044C
:102A700080914C0485FF08C080911401806280938E
:102A8000140180E20E94E3046C2FC6010E94C90F6A
:102A9000F11431F080911E0585FF02C086FF29C028
:102AA00080912105909122050E94850C80913C0423
:102AB00090913D049C0130522115304308F4992730
:102AC0000E940C100E94D21410C0CE0190528115A9
:102AD0009043B8F4CE0199270E940C1080913C04D9
:102AE00090913D04C817D90769F310933B040093F4
:102AF0003A04DF91CF911F910F91FF90DF90CF901B
:102B00000895CE01E9CFCF93DF93EC014A855B8531
:102B10006E857F850E9413099B81909580914F045B
:102B2000892380934F048C810E94E3040E94B30E9A
:102B300086E0FE0111928A95E9F7DF91CF91089521
:102B4000CF93DF93EC018D8181FD14C082608D8372
:102B500080914F049B81892B80934F048C810E942C
:102B6000DD040E94B30E488559856E857F85CE01B0
:102B70000E9413091092B7031092B6038D8180FD55
:102B800003C0CE010E948315DF91CF9108951F935A
:102B9000CF93DF93182FA091AC03B091AD031097A2
:102BA00009F44AC01092AF031092AE031092AA0328
:102BB0001092A9031696CD91DC911797CE019A95A4
:102BC00081159F4108F4D07ED1E0C11101C0D0E051
:102BD0001996ED91FC911A97309731F01B966D91F3
:102BE0007C9180E00995D823D11539F08CEF8C0FBA
:102BF000813A30F58C2F0E9494041115A9F0E091D0
:102C0000AC03F091AD03808584FD0EC08091AB03D1
:102C1000811551F0808191819C01215031092F3320
:102C20003E4710F40E94D30A0E94B30E1092AD03E7
:102C30001092AC031092AB03DF91CF911F910895D6
:102C40000E94B30E8C2F0E94D90FD7CF8F929F92E4
:102C5000AF92BF92CF92DF92FF920F931F93CF93C9
:102C6000DF93CDB7DEB76E970FB6F894DEBF0FBE19
:102C7000CDBFC0900003D090010381E090E090931D
:102C800001038093000310E089E3A82E83E0B82EAF
:102C900000E01AC021E030E0111104C0F401859178
:102CA00094919C014F2D602F812F0E945A0DF39417
:102CB00082E0880E911CA8E0FA12ECCF0F5FB0E121
:102CC000AB0EB11C083019F04501F12CE3CF1F5FAA
:102CD0001430D1F60E94BE111A8219821C821B8206
:102CE0001E821D8218861F8288EC90E09A87898751
:102CF0000DE412E04AE050E0B801CE0101960E94D6
:102D00003F33065F1F4F0D3982E0180799F7FE0128
:102D10003B968AE0DF011D928A95E9F7BE2EFF2ED1
:102D20004AE050E0B8018B2D9F2D0E943F33065F93
:102D30001F4F0D3EB2E01B0799F7FE01759689E023
:102D4000DF011D928A95E9F78FEF9FEF9A8F898FA8
:102D500087E08E8FBE2EFF2E4AE050E0B8018B2D0B
:102D60009F2D0E943F33065F1F4F0D33B3E01B07BB
:102D700099F7D0920103C09200036E960FB6F894B3
:102D8000DEBF0FBECDBFDF91CF911F910F91FF909E
:102D9000DF90CF90BF90AF909F908F90089580E08C
:102DA0000E943E0D60E088E290E00E941B330E948A
:102DB00026160E94820D81E00E943E0D0895AAE031
:102DC000B0E0E5EEF6E10C949A32E8E7F2E080E557
:102DD000DF011D928A95E9F7E3E5F4E088E3DF017E
:102DE0001D928A95E9F788E7C82E82E0D82E7F01E8
:102DF0000DE912E0F701D182C0824AE050E0B8014B
:102E0000CE0101960E94ED3288E0FE013196D60196
:102E100001900D928A95E1F789859A85D7011396DD
:102E20009C938E931297BAE0CB0ED11CE7E0EE0E86
:102E3000F11C065F1F4F0D3EF2E01F07D9F62A96E0
:102E4000E8E00C94B632AAE0B0E0E9E2F7E10C94D5
:102E5000963200E012E08EEEC82E81E0D82E9DEE74
:102E6000E92E92E0F92E27E0922E3DEEA32E31E0DE
:102E7000B32E88248394D6010D931D936D014AE0EF
:102E800050E0B701CE0101960E94ED32F80138966C
:102E9000DF01892D1D928A95E9F789819A81D801F0
:102EA00011969C938E938F8112968C9312978D819D
:102EB00013968C931397888514968C931497898511
:102EC00015968C9315978B819C8117969C938E9366
:102ED00016978A8587FD04C01E96BC92AE921D97F8
:102EE00080FF02C0F801808681FF07C0D8011896D4
:102EF0009C911897926018969C9382FF04C0F801E9
:102F000090859460908783FF07C0D80118969C91A4
:102F10001897986018969C9384FF04C0F8019085D8
:102F20009061908785FF07C0D80118968C911897FB
:102F3000806218968C93015F1F4FBAE0EB0EF11C74
:102F4000EDE3EE16E3E0FE0609F095CF2A96ECE0FD
:102F50000C94B232282FCB01283070F44AE0249F21
:102F600090011124B901635B7D4F4AE050E00E945B
:102F7000ED3280E090E008958FEF9FEF0895AAE092
:102F8000B0E0E5ECF7E10C94A0329C019755811577
:102F9000914070F4BE016F5F7F4F822F0E94AA178D
:102FA000892B31F489859A852A96E2E00C94BC320B
:102FB00080911B0590911C05F7CFA0E0B0E0E3EEF7
:102FC000F7E10C949B32162FD72FC42FD22E8115E8
:102FD000A9F0409347040E94710990939A0180934D
:102FE0009901C77081E001C0880FCA95EAF70E9475
:102FF000240FCDB7DEB7E7E00C94B73290914704C9
:10300000491335C08091990190919A010E94210B3A
:103010007C01812F9D2F0E94BF17E816F90638F515
:10302000D0E2DD0DCD15A1F0C77011E0812F01C0F8
:10303000880FCA95EAF70E94350FD83048F48D2DD5
:10304000877001C0110F8A95EAF7812F0E94240F23
:10305000802F0E942210D83060F62D2D277081E03D
:1030600001C0880F2A95EAF70E94350FC2CFC770BA
:1030700081E001C0880FCA95EAF7F6CFA6E0B0E07C
:10308000E4E4F8E10C9490327C01DC0114968C911C
:10309000811509F457C161E0C7010E94A70E8C0198
:1030A000F7018581811519F18091B6039091B703DD
:1030B0000097E9F008171907D1F0992754E0880F15
:1030C000991F5A95E1F7FC01E154FC4F20812460DF
:1030D000208386549C4FDC010D931C930E94A01505
:1030E00010924F0461E0C7010E94A70E8C01F70106
:1030F0008581811509F4B2C0C801975780389105C0
:1031000008F0DEC0D02EF0E10F1708F00AC18FEFF3
:1031100093E00E94FD32811104C10DE313E0D11050
:1031200036C0FE01319684E0DF011D928A95E9F7F1
:103130004F016801BFEFCB1ADB0AC8010E94FD32C4
:1031400089831A82811509F4ECC0813009F081C0AD
:103150005801E2E0AE0EB11CC6010E94FD32D82E2D
:103160008A83811509F4DDC0C5010E94FD32C82E95
:103170008FEF8D0D8330C8F4CB82C11419F0C401D8
:103180000E9446100D5F1F4F58018501D2CF0115D7
:1031900024E0120709F4C5C0C8010E94FD32811164
:1031A00001C0DA940F5F1F4FBACF8BEF8D0D8330C4
:1031B00038F5580123E0A20EB11CCB82C11429F3CB
:1031C000C5010E94FD328C83811581F08B819C8129
:1031D00081304FEF940710F0982F882756E0D516CE
:1031E00049F0A7E0DA1649F00E945D270C5F1F4FF7
:1031F0005801CBCF0E941927F9CF0E943B27F6CF69
:10320000E4E0DE12C2CF5801F4E0AF0EB11CC801F9
:1032100003960E94FD32C11409F483C0811509F49C
:1032200080C08150990B4FEF489F9001499F300D0E
:1032300011244C2D4150550B240F351F21503109BD
:1032400008F4A3CF8FE99FE00197F1F700C00000D9
:10325000F5CFC4010E944610560197CF6801A7E53B
:10326000DA1AC114B1E0DB0658F56FE973E08C2D72
:103270000E94AA17892B21F5C60134E0880F991FF7
:103280003A95E1F7FC01E654FC4F2281213099F593
:1032900020919F033091A003232B91F02091A10353
:1032A0003091A203232B61F02091A3033091A4035A
:1032B0004091A5035091A603242B352B232B19F104
:1032C000F7013580311409F441C00E35FCE71F07C2
:1032D00029F10F352CE7120741F00D354CE71407A3
:1032E000A9F5809113018115C9F01092130180E0B6
:1032F0000E94C71516C0223019F72091A303309100
:10330000A403232BE9F2FC01E154FC4F20812E7F22
:10331000208386549C4F0E94A015D2CF81E08093D9
:103320001301809150048770811561F0D7011596C3
:103330008C91811539F08091280582FF03C082E0CD
:103340000E94C1042696E2E10C94AC3280911301F4
:10335000811155C0C80197558115914008F4B0C13D
:1033600080911E0580FF5BC20E9471095C01F7011C
:103370008581811509F464C28091140182FF06C021
:1033800040E0B50180E090E00E94F1140431FCE7D8
:103390001F0709F451C205312CE7120709F4ECC1EB
:1033A00003314CE7140709F42CC2C801905281156F
:1033B000904308F0EBC110923D0410923C04D701F9
:1033C00015962C91211509F4CFC310924704C8011A
:1033D0009057839708F0C8C384E090E00E940533BB
:1033E0009093280580932705F801E150F047E232D9
:1033F000F10508F0FDC2EA58FC4C0C9483324801F8
:1034000080EE881A910850904D0480914C04582AFF
:1034100080914B04582A98E08916910408F052C014
:1034200098012770332781E090E001C0880F2A952A
:10343000EAF7311409F443C0582AD7018D919C91C1
:103440000E94020421E030E0390102C0660C771CC2
:103450008A95E2F7E091AC03F091AD03FE83ED8332
:10346000212CE22DF0E0EE0FFF1FE251FE4FC08055
:10347000D180C114D10409F43EC0511005C0D60159
:1034800012968C91811119C0F601838190E08621FA
:103490009721892B91F08085982F9770911101C009
:1034A00087E0F8E08F16910408F051C0311409F458
:1034B0004AC08695817081114FC02394D2CF8095E8
:1034C0005822BBCF31102CC08091B4039091B5032A
:1034D0000817190781F41092B5031092B4031092E3
:1034E000B0031092B1031092B2031092B303109282
:1034F000AF031092AE038091AC039091AD0300979F
:1035000009F428CFA8E08A16910408F0C2C0652DFE
:103510000E94F208811124CF81E00E94C71520CFBC
:103520001093B5030093B4030E94C70A6093B003DD
:103530007093B1038093B2039093B3031092AF03DF
:103540001092AE037ACF82FB882780F9B4CF311472
:1035500009F4B3CF80FFB1CFD601AD90BC900A156E
:103560001B0519F4311409F4A8CFED81FE81CE16A4
:10357000DF0609F4A2CFD6011D96ED91FC9130979C
:1035800021F08081811509F498CF652DC6010E9434
:10359000F208811509F491CF412C0A151B0509F495
:1035A000432CA114B10451F0411008C08091B40320
:1035B0009091B503A816B90609F07FCF80E00E946C
:1035C000C715D092AD03C092AC0381E08093AB03EA
:1035D000F60185818093AA0341100CC0AB2851F0FD
:1035E000808191819C0124503109213A3105A8F54F
:1035F0000E949404D6011696AD90BC90C5019A9590
:1036000081159F4110F4E0EEBE2277247394C5012A
:1036100001978F339E4708F0712CD6011996ED91D2
:10362000FC911A97309731F01B966D917C9181E057
:1036300009957822711471F0F601868197810E94B4
:1036400059038093A903C501F8E08F16910440F453
:103650000E94D30A0E94B30E0AC00E94D90FCACF9B
:103660000497813A910548F48A2D0E946004411420
:1036700009F470CE0E94B30E54CE0E94B30E8FE3B5
:103680009CE90197F1F700C000008A2D0E94470FC6
:10369000EECFFC01208131810217130741F4311074
:1036A00009C01092AB0380E00E94C71553CE3114BD
:1036B00009F450CEDC0118968C9185FD4BCEF3CFEA
:1036C000F801FF2794E0EE0FFF1F9A95E1F7AF0195
:1036D00046545C4F6A01D70115968C91E154FC4F1A
:1036E000908180FB90F99083811549F10E947109C6
:1036F0009093B9038093B803F60182818F5F828330
:1037000080914F0490914C04892B838380914B04CA
:1037100084834681578166857785C6010E94130997
:10372000D60115968C9181FD07C0902F812F909323
:10373000B6038093B70314CE90E080E0F8CFFA018F
:103740004485558566857785C6010E941309D60193
:1037500015968C9181FF04CEC6010E94831580913D
:10376000B6039091B7030817190709F0F9CD109225
:10377000B7031092B603F4CD90911401892F8E7F78
:1037800090FF8160809314010E94D21480911401F3
:1037900080FF45C00832110508F076C00E311105D2
:1037A00008F084C0C80104974A9780F580911E05EF
:1037B00084FD2CC0F7018581811509F4E7C0809153
:1037C0004B0490914C04892B8D7F811509F473C0B3
:1037D00010923D0410923C0480911E0581FD6BC047
:1037E00060E0C8010E948F0860E0C8010E94C90F14
:1037F00080914B048D7F0E94C60982E00E94C10423
:1038000090CD80911401816080931401D7011596A9
:103810008C91811521F010923D0410923C04F70127
:103820008581F801E851FC47E730F10508F0C7CD84
:10383000E856FC4C0C948332809114018E7FA2CF09
:10384000809114018F7E013E110531F0053E110576
:1038500031F4809114018F7D8093140197CFC801BA
:1038600090528115904308F091CF8091140182FF0E
:10387000A6CD8091200581FDA2CD40E0B50180E07C
:1038800090E00E94F1149BCD0933110560F40D32D4
:10389000110520F40B32110509F0B8CF80911E05F7
:1038A00082FDB4CF87CF04361105F6CF80911E0577
:1038B00083FDACCF7FCF89E0F701AEE3B4E00190A8
:1038C0000D928A95E1F710924304109241041092F0
:1038D000400480913C0490913D0408171907C9F5F4
:1038E00020911E0525FF35C03091140131FF02C023
:1038F00026FF2FC020913A0430913B046501C21A83
:10390000D30A0E94BF17C816D90618F580914C0437
:1039100081FF08C08091140180618093140182E0CE
:103920000E94E30480914C0485FF08C0809114013B
:1039300080628093140180E20E94E304609114018C
:103940006695617080913C0490913D040E94C90F7E
:10395000E8CC80914B04D0904C04D82AD1FADD24D5
:10396000D0F88D7F0E94C60910933D0400933C045B
:10397000B0923B04A0923A04DD0C6894D2F8909186
:103980001401997FD92AD092140137CF40E0B501B4
:10399000C8010E94F114C5CC06E221EE41EE6AE1B5
:1039A0007CE70E94DD17BDCC07E225EE45EE6BE11A
:1039B0007CE7F7CF06E221EE40EE68E17CE7F1CF4D
:1039C00007E225EE44EE69E17CE7EBCF06E221EE6B
:1039D00042EE6CE17CE7E5CF07E225EE46EE6DE1D5
:1039E0007CE7DFCF08E221E045EE6EE17CE7D9CF4E
:1039F000809127058160809327056091270570914C
:103A0000280584E090E00E9439330E94E81089CCB8
:103A100080912805886080932805EFCF8091270545
:103A20008260E9CF809127058460E5CF80912705EA
:103A30008860E1CF809128058160EDCF80912805D5
:103A40008260E9CF809127058061D5CF80912705DD
:103A50008062D1CF809127058064CDCF0E94E8108D
:103A6000809127058068C7CF809127058C60C3CFE0
:103A7000809128058360CFCF809127058E7FBBCFB3
:103A800080912805877FC7CF809127058D7FB3CF91
:103A9000809127058B7FAFCF80912705877FABCFA4
:103AA000809128058E7FB7CF809128058D7FB3CF79
:103AB000809127058F7E9FCF809127058F7D9BCF9B
:103AC000809127058F7B97CF0E94E8108091270572
:103AD0008F7791CF80912705837F8DCF80912805A7
:103AE0008C7F99CF8091270582FB992790F921E05F
:103AF000922790FB82F990FB83F97DCF8091280576
:103B0000982F909590FB80F990FB81F984CF90914C
:103B10002705892F8F7B96FF80646DCF0E94E81068
:103B200090912705892F97FB87F9805864CF61E032
:103B30008EE090E00E941B3360CF60E0F9CF90915F
:103B40002705892F8F7E94FF806155CF909127059F
:103B5000892F8E7F90FF81604ECF90912805892F0D
:103B6000877F93FF886057CF0631BCE71B07C1F5FD
:103B700080914C0430911D0530FF04C0982F94743F
:103B8000911122C0982F9A7A31FF04C0482F4171B9
:103B9000411190E032FF04C0482F4878411190E075
:103BA00033FF03C08272811190E0211579F081E02A
:103BB000911101C080E08093480485E3911101C018
:103BC00089E20E94600456CD90E0DECF80914804E7
:103BD000811521F085E30E9494044CCD89E2FBCF4E
:103BE0000737ECE71E0709F45EC00837FCE71F073C
:103BF00009F464C02115B1F00A352CE7120709F465
:103C00008AC008F060C001305CE7150709F481C084
:103C100003308CE7180709F476C001159CE71907F3
:103C200009F464C0F70187819085009709F477C093
:103C30000E94E905182FD92EF701C580B680B294ED
:103C40008FE0B8228091500487708115F1F0AC2C80
:103C5000C114E1F0892F807F803451F080E2810F20
:103C6000883098F0B11004C0892F807E803269F0CE
:103C70008091280582FF09C082E00E94C1048091E2
:103C800050048770AA24A3948111A12C8D2D8295B4
:103C90008F70882E912C8C3008F0C6C0F401E1564C
:103CA000FC4C0C94833281E0211551F00E94B20348
:103CB00043E062E081E00E94350433CB82E0F4CF40
:103CC0000E94BE03F5CF0B35ACE71A0731F10C3576
:103CD000BCE71B0709F0A6CF8091280582FB882747
:103CE00080F991E089270E94270D9CCF0E94E8105F
:103CF000EFEFF4E32CE0E150F0402040E1F700C0AA
:103D000000000E94930C6FEF7FEF80E090E00E9434
:103D100039330E94171181E0E6CF80E0E4CF85813E
:103D2000C080D180811569F0C6010E943B0E182F1A
:103D3000682FC6010E94CE03B601812F0E941E0E7D
:103D400077CFC6010E940204182FF6CF0D2D0F70F9
:103D5000F0E1DF1610F00295007FC114A9F0011503
:103D600059F080E2810F883010F0111107C0802FC8
:103D70000E94DD040E94B30E812F54C080914F0435
:103D8000802B80934F04F6CF812F0E94D90F01150D
:103D900009F44AC080E2810F883010F0111104C08C
:103DA000802F0E94E30406C0009580914F04802379
:103DB00080934F040E94B30E37C00D2D0F708D2DD0
:103DC000807F803211F00295007F1115E9F01130EB
:103DD00009F4B6C0C11409F4C2C0B11409F45DC03D
:103DE00040E0D70115966C9115978D919C910E949A
:103DF000890E8091200581FDBFCFF701868180FF6C
:103E0000BBCF8F70868349C08091280582FD41C059
:103E1000C114C9F1011529F0802F0E94DD040E9410
:103E2000B30E80E00E94470F28E0821A910844E018
:103E30008416910410F40E941809812F9D2D0E9470
:103E40008D038111D2C110922A0510922905A11467
:103E5000A9F08091500480FD11C0F701158286956C
:103E6000869586950E94B203C7010E943E188091F4
:103E700050048695869586950E94BE0360E0C70132
:103E80000E94A70E5FCA80E00E94D90F011561F25F
:103E900087CFC11491F1B11004C0802F0E94240F6C
:103EA000C3CF21E0B21211C070904B04802F872144
:103EB000081709F4B9CF0E94710990934A048093BE
:103EC0004904702A70924B04AFCF80911F05823055
:103ED00008F4AACFB812A8CF802F0E94240F802FF9
:103EE0000E94B00980914D04902F9823091709F47E
:103EF0009BCF802B80934D0497CFB11012C0802FA1
:103F00000E94350F802F0E94B00980914D04902FA0
:103F10009823911509F488CF0095082300934D0448
:103F200083CF80911F05823008F47ECF41E0B41228
:103F30007BCF80914C048023811509F475CFDFCFAE
:103F400080912505C11421F08B1508F46DCFA5CF04
:103F5000B81608F069CF802F0E94350F65CFB114D5
:103F6000D1F38091230590912405193321F080919C
:103F70002105909122050E94850C812F0E94D90F66
:103F800053CF8D2D869586958370811569F081308C
:103F900009F04ACF812F9D2D9370C11002C080E09F
:103FA00090E00E944B0940CF812F9D2D9370C1104E
:103FB00002C080E090E00E94250936CF6C2D812F51
:103FC0000E94020A31CF8D2D8370811133C0C11040
:103FD0002BCF412F429546954770440F440F812FB8
:103FE0008F70042E01C0880F0A94EAF7212F2071E8
:103FF000211539F02FE030E001C0220F4A95EAF791
:1040000020953D2D369536953370323071F0333032
:1040100051F040914E04313029F0822B84230E94CC
:10402000AC0302CF842B822BFACF822B90914E04CB
:104030008927F5CFC11459F1D0FEF6CE412F429514
:1040400046954770440F440F812F8F70042E01C096
:10405000880F0A94EAF7212F2071211539F02FE0FB
:1040600030E001C0220F4A95EAF720953D2D3695A4
:1040700036953370323091F0333071F04091020553
:10408000313049F0822B84230E94AF03CDCE8230A1
:1040900008F4CACED3CF842B822BF6CF822B9091FB
:1040A00002058927F1CF0D2D0F70C11429F0802F43
:1040B0000E94B203812FF2CE812F0E94350F802FF4
:1040C0000E94BE03B1CE123F71F160F4103FB9F00F
:1040D000113F81F0C11409F483C0B1104DCE8D2D74
:1040E0008F7125C0133F31F1143FA1F7809128054E
:1040F00082FD2CC08D2D8F71C11411F318C08091D9
:104100002505C11461F0B81608F08ECE2D2D2F7143
:1041100081E090E001C0880F2A95EAF7C0CF8B15A7
:1041200008F482CEF3CF8D2D8F71C110C9CF0E94BC
:10413000B2037ACE80E0C11409F4A6CF81E09D2DB0
:104140009F7101C0880F9A95EAF79ECF80911F0555
:10415000823078F1C114E9F0909150049770943056
:1041600061F41092500410925204109251048D2D5B
:104170008F710E94BE03A12C57CEB816E0F70D2D0B
:104180000F71802F0E94B20363E0802F0E94980974
:10419000F2CFB81650F010925004109252041092C0
:1041A000510464E08D2D8F71F1CF81E00E94C10434
:1041B000E2CFC11451F00D2D0F71802F0E94B20378
:1041C00063E0802F0E9498092FCE81E00E94C104F5
:1041D000F2E0BF1608F428CE82E00E94C10424CE8B
:1041E000B110BFCE8D2D8F716BCFC11419F0B110EE
:1041F0002ACE2DCEB11027CE40E0D70115966C9176
:1042000015978D919C910E94890E8091200583FFC6
:104210001ACE8091290590912A05029709F013CEB4
:10422000812F0E9422100FCEA0E0B0E0EAE1F1E27F
:104230000C949B3280917B03803108F049C08091BF
:104240007A03811509F444C0C0912C0389E0D82E6B
:1042500080912B038C17E1F1EC2EF12CDC9EE00118
:104260001124FE01E35DFC4F84818115B1F1918140
:1042700080917603981331C09081809175039813D3
:104280002CC08581811129C002811381809177031F
:1042900090917803081B190B60E085E793E00E947A
:1042A000A70E0E94BF1708171907B8F480917B0367
:1042B0008F70806180937B03CD5CDC4F88818F7031
:1042C0008061888385E793E00E943E180E9456042F
:1042D000CDB7DEB7E7E00C94B732E7012196C7709F
:1042E000B7CFAFE0B0E0E7E7F1E20C9493328C0196
:1042F00086E0F801DE011A9601900D928A95E1F7A9
:10430000D801CC9011967C90119715966C901597CA
:104310001296ED90FC90139714965C9085E7A82E6A
:1043200083E0B82E80917903811118C0511499F05F
:10433000611409F4BFC1C8010E94750E811509F40A
:10434000B9C189E0F801A5E7B3E001900D928A9523
:10435000E1F70E941421FF24F3944BC060E085E74D
:1043600093E00E94A70ED0907A03809177039091FA
:104370007803D11409F449C14701881A990A60E009
:1043800085E793E00E94A70E0E94BF178816990642
:1043900008F0F6C05114F9F280917603F80191818A
:1043A000B0907B03F0E1BF1608F0A1C0F62C981383
:1043B00025C090917503D8018C9198131FC020914E
:1043C0007C0330917D0317968D919C9128173907B6
:1043D000A9F4611077C08B2D8F70806180937B036F
:1043E00085E793E00E943E1880917B03F801868365
:1043F000F12C8F2D2F96EFE00C94AF32611062C03C
:10440000E0912C0380912B03AE2F99E0A81302C0FA
:1044100099E02AC02A2F30E09A9FD0011124A35D91
:10442000BC4F11964C911197741207C04C91C41255
:1044300004C015964C91411147C1D9011196A7703E
:10444000E5CF2E2F30E09E9FF0011124E35DFC4F5D
:104450004181741206C04081C41203C045814111DC
:10446000C7CFF9013196E7708E13EBCF8A859B8514
:104470000E94660E292F22952F70903448F02A5FF3
:104480002F702230C8F0C8010E943E18FD2CB1CF19
:104490009F70223038F0911551F0F80196819031DB
:1044A00030F4A7CF911519F0811509F4A2CF805EE1
:1044B000883008F49ECFE7CF803F08F49ACF815F21
:1044C0008330F7CF80917B03816080937B03809161
:1044D000200581FD8DCF85E793E00E943E1889E09D
:1044E000E5E7F3E0DF011D928A95E9F781CF9813A4
:1044F00021C090917503D8018C9198131BC0209115
:104500007C0330917D0317968D919C911897281705
:10451000390781F461100EC01696BC92C8010E9442
:104520003E1889E0F801A5E7B3E001900D928A9565
:10453000E1F711CFC8010E94750E811509F4BAC0C8
:10454000611409F4B7C080917B03803208F4F9CE7E
:1045500080917503909176039A838983FC82EB8224
:10456000809179038D831E82BF8280917C0390911C
:104570007D0399878887CE0101960E943E18E1CE7F
:10458000D0907B03B0E1DB1608F4A5CF511409F4F9
:10459000E2CE90917603F801818198131AC0909130
:1045A00075038081981315C020917C0330917D03A1
:1045B000878190852817390761F461100AC0D68277
:1045C000C8010E943E1889E0D5011D928A95E9F73D
:1045D000C2CEC8010E94750E811509F46BC061142A
:1045E00009F468C080917B03803208F4AACE8091E0
:1045F0007503909176039A838983FC82EB82809184
:1046000079038D831E82DF82B0CF6701C81AD90A71
:1046100060E085E793E00E94A70E0E94BF17C816CE
:10462000D90608F04BC0511409F495CE611409F471
:1046300041C090917603F8018181981331C0909127
:104640007503808198132CC020917C0330917D03E9
:10465000878190852817390719F580917703909104
:104660007803E81AF90AF8ECEF16F10408F059CFCC
:1046700080917B0380FD55CF803108F452CFD80163
:1046800016968C931697982F907F903F09F446CFFB
:10469000982F907F905F8F70892B16968C933ECFCA
:1046A000C8010E94750E81114CCE80917B03816000
:1046B00080937B03C8010E943E184DCE89E0F5012E
:1046C00011928A95E9F794CE9091200590FFA0CEA3
:1046D00002CFA2E1B0E0EFE6F3E20C949E320A874B
:1046E0001B872C873D874E875F87688B798B8A8BEA
:1046F000CE010A960E94712181112AC089E0FE0133
:104700003A96DE01119601900D928A95E1F720917B
:104710002B0340912C038E858115D1F030E0C90127
:1047200001968770992748171906E9F099E0929F3A
:10473000D001939FB00D1124A35DBC4FFE013196B3
:1047400001900D929A95E1F780932B030E945604F5
:1047500019E080912C0390912B03891312C062966B
:10476000E4E00C94BA320E94E81010922B031092ED
:104770002C0389E0E5E7F3E0DF011D928A95E9F774
:10478000E7CF189FC0011124835D9C4F0E947121C7
:10479000811529F380912C0390E001968770992769
:1047A00080932C03D6CFEF92FF920F931F93CF935A
:1047B000DF938091FF04E091CC01CDE0811131C005
:1047C000CDB7DEB7E6E00C94B832D1E0DE0FD0937F
:1047D000CC01EE2EF12CCE9FF0011124E956FB4FB7
:1047E00084818115E9F087819085892B21F4818569
:1047F0009285019659F4008111812281338144818F
:1048000055816681778180850E946923CE9DF00164
:10481000CF9DF00D1124E956FB4F148210924F04E6
:10482000ED2F8091FF04E81780F21092FF041092A0
:10483000CC01C6CFA4E0B0E0E0E2F4E20C94913207
:1048400020919604298317E0912E01E010E08DE07D
:10485000382E94E0492E55245394809195049981E3
:10486000891308C00E94D3230E94B5082496E1E171
:104870000C94AD325981452F50E05C834B83FA0193
:10488000EE0FFF1FE557FB4F80819181989ED0016D
:10489000999EB00D1124FD01ED5AFB4FFA83E98377
:1048A000248121115BC06090FF04E7E9F4E060E03F
:1048B00070E0812C661508F04FC0A384B484A981F0
:1048C000BA81CD90DC904FEF5FEF712C272D30E057
:1048D0007901EE0CFF1CEC0CFD1CD701ED90FC9057
:1048E000E114F10439F0AE14BF0409F09A01739495
:1048F000A901ECCF4F3F5407D1F1D80102C0AA0F54
:10490000BB1F4A95E2F78A2AA801072C02C0440F70
:10491000551F0A94E2F79A012150310982161306B5
:1049200029F5369EF001379EF00D1124E956FB4F14
:10493000989ED001999EB00D1124AD5ABB4F12968E
:104940002D913C91139730872783448210821182E6
:104950009287818715965C920E94C6088B819C8104
:1049600001969A8389838370898377CF14826F5FDE
:104970007F4F3D969FCF1092010510920005109237
:10498000150180919504809396040E94B5080E94B9
:10499000D3230895ACE1B0E0E0EDF4E20C94903262
:1049A0004B8B5C8B6D8B7E8B8F8B988F811549F039
:1049B0008091290590912A05019690932A0580936C
:1049C0002905988C911010924F04188A198A1A8A16
:1049D00086E0FE017396DE011A9601900D928A958B
:1049E000E1F78091280582FF21C080910505909113
:1049F0000605892BD9F00E9471092091510430914C
:104A00005204821B930B20910505309106058217F5
:104A1000930738F08091500482FD03C082E00E9429
:104A2000C1040E947D0981110E94EB048E858115CD
:104A300079F061E0CE010A960E94A70E5C018035F4
:104A40002CE7920789F4911411F181E0809315010C
:104A50000A851B852C853D854E855F85688979890A
:104A60008A890E946923CCC081353CE7930729F4E9
:104A7000911469F00E94BB24EBCF82359C4739F436
:104A8000911429F0809115018111F4CFDECF13E547
:104A9000E12E14E0F12E812C412C512CD7014D91A7
:104AA0005C91CC24CA94DD24DA9420E0822F90E03B
:104AB000FC01EE0FFF1FE40FF51F6081718161158E
:104AC000710539F0A616B70609F0C6012F5F6C0113
:104AD000EDCF10E0BFEFCB16DB0609F44FC0F701B6
:104AE000448110911501812F411180E0182F117020
:104AF000D70115963C90159716968C9116979114A0
:104B000009F4FDC0111509F4FAC060901905709000
:104B10001A05311015C041E050E00C2C01C0440FC3
:104B20000A94EAF7842B16968C93809193049091C3
:104B300094048615970520F470929404609293046F
:104B400081E090E002C0880F991F2A95E2F7019753
:104B5000F70126812817190689F4809100059091A4
:104B60000105009709F450C00E94210B68167906D0
:104B700008F04AC081E0D70114968C93812ABFEFD8
:104B80004B1A5B0AE7E0EE0EF11CF8E04F165104F9
:104B900009F084CF911409F415C1811409F412C1EC
:104BA0000E94710990930105809300058091FF0494
:104BB000883030F591E0980F9093FF0499E0FE0162
:104BC0003A96DE01119601900D929A95E1F72DE04B
:104BD000829FC001112489569B4F29E0FE01319626
:104BE000DC0101900D922A95E1F72FEF3FEFDC01F8
:104BF0001A963C932E9319971C96BC92AE921B97D3
:104C00006C96E2E10C94AC3220919604809195046C
:104C1000922FE0E0F0E001E06701281314C09093C8
:104C20009604EE15FF0509F4A9CF90E0FC01EE0F04
:104C3000FF1FE557FB4F51824082019683709927F1
:104C4000809395049BCF622E712CF301EE0FFF1F12
:104C5000E557FB4F60817181E7E0E69FD001E79F58
:104C6000B00D1124AD5ABB4F4D915C9111975C8FE3
:104C70004B8F50E030E040E0E42FF0E0EE0FFF1FFC
:104C80006B8D7C8DE60FF71F20803180211431045D
:104C9000E1F0F7010190F081E02DFA8FE98F30E02B
:104CA00005C02616370609F4512F3F5FE32FF0E0C9
:104CB000EE0FFF1F698D7A8DE60FF71F60817181FE
:104CC0006115710571F74F5FD7CF5115A9F0F60146
:104CD000341708F0FD010483EE15FF0509F49FCF9A
:104CE000291305C0EA17FB0711F49F5F9370930126
:104CF0002F5F3F4F237091CFE0E0F0E0F8CF90E0DE
:104D0000311025C061E070E002C0660F771F2A9560
:104D1000E2F79B01215031098217930731F44115C5
:104D200009F44EC0C2010E94C608E1E0F0E002C0F2
:104D3000EE0FFF1FCA94E2F76F01C094D7011696D9
:104D40008C9116978C2116968C93132D17CFAC014E
:104D50000C2C02C0559547950A94E2F79C0121500E
:104D6000310982239323892B39F540FF25C0D701D0
:104D700012968D919C91892BD9F087E0FE01319696
:104D8000DF011D928A95E9F70E9471099C018B83CE
:104D90009C8384E08D83F70192818381792F9887AA
:104DA000898709811A8144E05E816F810E946923AD
:104DB000D70115961C92B9CFB42FB1703B2EB5CF49
:104DC000312EB3CF9091960480919504981729F0D5
:104DD0000E941A24811014CF3BCE0E94D32310923C
:104DE0000105109200050E94B508F4CFA6E0B0E0DE
:104DF000ECEFF6E20C949E320E9471098C018091D6
:104E00000703909108038017910779F019821A829D
:104E10000E947109BC0149815A8180E090E00E94A2
:104E2000CA2410930803009307032696E4E00C9429
:104E3000BA32A6E0B0E0EFE1F7E20C94A032909332
:104E4000040380930303811520E2920730F40E944B
:104E5000B30F2696E2E00C94BC3280EF89838A83FC
:104E60000E9471098160BC0149815A8181E091E011
:104E70000E94CA24EECFA6E0B0E0E1E4F7E20C9491
:104E8000A0329093040380930303811520E29207DC
:104E900030F40E940C102696E2E00C94BC3280EFB5
:104EA00089838A830E9471098160BC0149815A818A
:104EB00081E090E00E94CA24EECFCF93DF93D82FF9
:104EC000C92F0E94192780912105909122050E94E7
:104ED000850C8D2F9C2F0E943B27DF91CF91089549
:104EE0000F931F93CF93DF938C01862F6FE973E0AD
:104EF0000E94AA17892BA9F4C0919F03D091A00307
:104F0000209779F0F8018281833051F4CE010E941C
:104F10005D27CE010E945D27CE010E945D2701C062
:104F2000D8F7DF91CF911F910F9108950F931F93A1
:104F3000CF93DF938C01EB016FE973E08C2F0E941C
:104F4000AA17892B09F05AC0FE01FF27D801129633
:104F50008C911297E853FD4F8130A9F415968C91EE
:104F600082FD51C080FF4FC082E080838091A10309
:104F70009091A2030097B9F480919F039091A003B0
:104F80000097E1F110C08230B9F515968C9182FD41
:104F900028C080FD0BC083E080838091A3039091A3
:104FA000A403009701F10E94192728C084E08083A0
:104FB0008091A5039091A6030097A9F780919F0384
:104FC0009091A003009711F10E945D278091A103A9
:104FD0009091A203009739F780919F039091A003CD
:104FE000E2CF85E0808380919F039091A00300979A
:104FF00029F00E945D27F0CF86E08083DF91CF917A
:105000001F910F91089581E08083B6CF8091A10315
:105010009091A203B5CF0F931F93CF93DF938C0191
:10502000EB016FE973E08C2F0E94AA17892BA1F482
:1050300080912105909122050E94850CDD27C8539F
:10504000DD4F8881F801128218828330F1F048F434
:10505000813059F0823081F0DF91CF911F910F9113
:1050600008958430B9F08530B9F780919F0390910D
:10507000A003009789F306C08091A1039091A20339
:10508000009799F30E943B27E7CF8091A30390916B
:10509000A403F6CF8091A5039091A603009791F702
:1050A00020919F033091A0038091A1039091A203CE
:1050B00021153105F1F2009729F7C901E3CF9C01D1
:1050C000CB01BA01F90132964591549164177507E5
:1050D00048F0F9013496659174910E94DD3280E0C8
:1050E00090E008958FEF9FEF08959C01DA010296FA
:1050F000FC0145915491FC0185919491A817B90741
:1051000058F0F9013496859194910E94DD320E9405
:10511000AB0D80E090E008958FEF9FEF0895A8E039
:10512000B0E0E5E9F8E20C949532FE01319688E0B2
:10513000DF011D928A95E9F78EE2A82E81E0B82E54
:105140008F0196E3E92E91E0F92E4F01CC24C39410
:10515000D12CF50181915F018F3F09F442C0F89491
:10516000E82FE295EF70F0E021A18F70A60102C058
:10517000440F551F8A95E2F7CA01922F982B91A3ED
:1051800092A18095892382A3789400C0E6E3F1E0A0
:1051900031E0712C21912F3F89F0A22FA295AF70A1
:1051A000A05EB0E08C9190E02F7002C0959587953D
:1051B0002A95E2F78170811509F451C080E0782AC0
:1051C000330F51E0EE33F50729F7F5013197808170
:1051D0008F3F11F00E94020780EA8A95F1F7D8010B
:1051E0007C920F5F1F4FEA14FB0409F0B2CF48E036
:1051F00050E0B40180ED92E00E94D032892B89F119
:1052000088E0F401A0EDB2E001900D928A95E1F7FB
:1052100081E0809398010E94710990939701809397
:10522000960180919601909197010E94210B05971C
:10523000E0F048E050E060ED72E088EF92E00E941C
:10524000D032892B49F088E0E0EDF2E0A8EFB2E03F
:1052500001900D928A95E1F71092980106C0832F74
:10526000AECF809198018111DCCF2896EDE00C94AF
:10527000B132CDB7DEB7AA970FB6F894DEBF0FBE36
:10528000CDBF85B7806885BF85B7806885BF84B787
:10529000877F84BF0FB6F894A895809160008861DD
:1052A00080936000109260000FBE80E890E00FB61F
:1052B000F89480936100909361000FBE80E097E0C6
:1052C00090937501809374010E94D2070E94DF16AB
:1052D0000E9423170E94C80D0E94DB0B0E942A0C1B
:1052E0008091E20084608093E200789480910203D0
:1052F000811599F08091E9001091EC001795112724
:1053000017958F70182B1092E9008091E80083FDAB
:105310000E940D121F701093E90082E084BD93E09B
:1053200095BD9AEF97BD80936E000E94920D8111FA
:1053300002C00E94CF160EE211E0D8018D918D01BE
:105340008F3F11F00E940207B1E006331B07A9F757
:1053500006E311E0FEE3EF2EF1E0FF2EF80181916C
:105360008F018F3F11F00E940207E016F106B1F79E
:1053700088E0E8EFF2E0DF01282F1D922A95E9F797
:10538000E0EDF2E0DF011D928A95E9F780E090E020
:105390000E940533863E9E4F21F40E94920D81119A
:1053A00067C066EE7EEF80E090E00E94393360E0F7
:1053B00082E090E00E941B3360E083E090E00E9476
:1053C0001B3310924E0460E074E184E090E00E9490
:1053D000393360E086E090E00E941B336FEF87E096
:1053E00090E00E941B3340E050E0BA0188E090E07A
:1053F0000E942D3360E084E290E00E941B3360E065
:1054000087E190E00E941B3360E08CE090E00E9416
:105410001B3360E08DE090E00E941B3319821A82FA
:105420001B821C821D821E821F82188648E050E06B
:1054300068E170E0CE0101960E940B3340E050E03D
:10544000BA0180E290E00E942D3380E00E943E0D80
:105450000E94CF1640E050E0BA018FE090E00E9439
:105460002D3340E050E0BA0183E190E00E942D33FB
:1054700082E090E00E94FD328093DA0284E090E0C6
:105480000E94053390932805809327050E948F285A
:10549000EFEFF6E721E0E150F0402040E1F700C0F7
:1054A00000000E948F288091F80280FF08C06FEFF3
:1054B0007FEF80E090E00E9439330E94930C83E0FC
:1054C00090E00E94FD320E94AC0384E091E0909352
:1054D0000A038093090378E1272E312CE0E04E2E59
:1054E000E3E05E2E80910203853049F4809102034F
:1054F000853009F44EC00E94E8100E9418090E94ED
:105500008F280BED12E068EFE62E62E0F62E23EE18
:1055100032E0D701F80191918D912E173F0709F4E0
:1055200086C09817C1F3D12CD701CD907D01F80129
:1055300091908F019C1431F19C24B12CAA24A39446
:10554000892D8A218115B1F0B982DA820E94710910
:105550009C838B83F1E0FD8391E08C2D8A21811166
:1055600001C090E09E8349815A816B817C818D814D
:105570000E94CA24B394AA0C28E0B212E1CFF80129
:105580003197C082D39438E0D312CECF0E94C70A9D
:1055900052C080910203843011F11092D80230E49D
:1055A0000FB6F894A895209260000FBE309360006B
:1055B00083B7817F846083BF83B7816083BF789422
:1055C000889583B78E7F83BF0FB6F894A895809196
:1055D0006000886180936000109260000FBE80912F
:1055E000D902811509F482CF0E948F28E8EFF2E0FA
:1055F0008191811104C04E165F06D1F777CF80E10B
:1056000089BD82E189BD09B400FEFDCF8091D8003B
:105610008F7D8093D8008091E00082608093E000CD
:105620008091E00081FDFCCF0E94E8105FCF9813CD
:105630007ACF0E94F6268091AE039091AF03892B1A
:1056400009F43EC04091EB025091EC026091ED02F2
:105650007091EE022FB7F8948091E3029091E402EA
:10566000A091E502B091E6022FBF841B950BA60B1B
:10567000B70B4091E7025091E8026091E902709106
:10568000EA0284179507A607B707D0F08091AE030A
:105690009091AF030E94B30F1092AF031092AE032C
:1056A0001092EB021092EC021092ED021092EE02B8
:1056B0001092E7021092E8021092E9021092EA02B8
:1056C000E090B603F090B703E114F10409F1809182
:1056D000B8039091B9030E94210B8C01C7010E946D
:1056E000BF1780179107A0F48091B6039091B7037C
:1056F000992754E0880F991F5A95E1F7FC01E1546E
:10570000FC4F208122FD04C086549C4F0E94A015AE
:1057100080911501811501F180910005909101059D
:105720000097D1F00E94210B2091930430919404B2
:105730002817390788F4909196048091950498175A
:1057400009F4DEC00E941A2410929404109293046B
:10575000109201051092000580911E0580FF1CC06B
:105760008091140182FF18C00E947109BC018091D0
:105770003A0490913B049B01281B390B80910C014A
:1057800090910D012817390738F041E080913C04D1
:1057900090913D040E94F11486E0E9E9F3E0DE0116
:1057A000119601900D928A95E1F7E0909A03F0909E
:1057B0009B0300919C03D0909D0310919E03109237
:1057C0009B0310929C0310929D0310929E03802FC6
:1057D0008F29811591F08091F1029091F2020E943F
:1057E000210B9C0180919703811509F492C090913F
:1057F00011019217130608F49AC0812F8D29811583
:1058000091F08091EF029091F0020E94210B9C0197
:1058100080919603811509F4C3C090910F019217EE
:10582000130608F4CBC080919A038E1119C08091A1
:105830009B03811511F08F1113C020919C0321153A
:1058400011F020130DC090919E03911511F01913C2
:1058500007C030919D03311103C0822B892B811128
:105860000E94DA0986E0FE013196A9E9B3E00190D1
:105870000D928A95E1F70E9418099091F302891719
:1058800021F08093F3020E94C70A809102038430C2
:1058900009F028CE83E08093E9008091E80082FF40
:1058A00021CE8091E80090E085FF06C00E94AB0BFE
:1058B000811509F4BCC091E08091E8008B7780935A
:1058C000E800911509F40ECE00910503109106032E
:1058D000E9810115110509F4C7C0EE3F09F0E8C0E0
:1058E0008A81833020F08550833008F0E1C0EA815E
:1058F000EE3008F0DDC0F0E0E555FC4C0C9483324E
:105900000E94D32310920105109200050E94B50851
:1059100023CF409110019AE0499FA0011124421722
:10592000530708F06ACF8F5F8093970302C08F3FC1
:10593000D1F7F11459F00E94290791E01F140CF0DF
:105940009FEF899F802D112480939B03011559F0AF
:105950000E94290791E010160CF09FEF899F802D7F
:10596000112480939C0380919B03811509F445CFFA
:10597000C0909C03C11409F440CF0E941B07811101
:1059800001C081E080939B038C2D0E941B07811531
:1059900019F080939C0331CFA1E0A0939C032DCFFD
:1059A00040910E01BAE04B9FA0011124421753070A
:1059B00008F039CF8F5F8093960302C08F3FD1F7F5
:1059C000D11459F00E94890791E01D140CF09FEF4B
:1059D000899F802D112480939D03111559F00E94F9
:1059E000890791E011160CF09FEF899F802D1124FB
:1059F00080939E0380919D03811509F414CFD0906C
:105A00009E03D11409F40FCF0E941B07811101C01E
:105A100081E080939D038D2D0E941B07811519F055
:105A200080939E0300CFE1E0E0939E03FCCE00E272
:105A300010E09E012F5F3F4F79018091E80085FDC6
:105A40000AC08091E8008B778093E8000E94AB0B3E
:105A5000811599F330CF8091F100D7018D937D01AD
:105A60000150104051F727CFE43150F4E11559F0BF
:105A7000E150E33140F4F0E0E754FC4C0C94833205
:105A8000EE3F09F434CF8FEF8FC21A8289E08B8307
:105A90000FC08A818230A9F08330E1F0813099F71C
:105AA0000E94C70A0E9489326B837C838D839E8308
:105AB00040E250E0BE016F5F7F4F82E00E94B70C72
:105AC00011CD88E290E00E94FD321B821C821D8273
:105AD0008E83EECF8091000390910103892B41F3D7
